{
  "contractName": "Library",
  "abi": [
    {
      "constant": true,
      "inputs": [
        {
          "name": "",
          "type": "uint256"
        }
      ],
      "name": "users",
      "outputs": [
        {
          "name": "",
          "type": "address"
        }
      ],
      "payable": false,
      "stateMutability": "view",
      "type": "function"
    },
    {
      "constant": false,
      "inputs": [
        {
          "name": "id",
          "type": "uint256"
        }
      ],
      "name": "user",
      "outputs": [
        {
          "name": "",
          "type": "uint256"
        }
      ],
      "payable": false,
      "stateMutability": "nonpayable",
      "type": "function"
    },
    {
      "constant": true,
      "inputs": [],
      "name": "getUsers",
      "outputs": [
        {
          "name": "",
          "type": "address[10]"
        }
      ],
      "payable": false,
      "stateMutability": "view",
      "type": "function"
    }
  ],
  "bytecode": "0x608060405234801561001057600080fd5b506102d7806100206000396000f300608060405260043610610056576000357c0100000000000000000000000000000000000000000000000000000000900463ffffffff168062ce8e3e1461005b578063365b98b2146100ae578063553275be1461011b575b600080fd5b34801561006757600080fd5b5061007061015c565b6040518082600a60200280838360005b8381101561009b578082015181840152602081019050610080565b5050505090500191505060405180910390f35b3480156100ba57600080fd5b506100d9600480360381019080803590602001909291905050506101dd565b604051808273ffffffffffffffffffffffffffffffffffffffff1673ffffffffffffffffffffffffffffffffffffffff16815260200191505060405180910390f35b34801561012757600080fd5b5061014660048036038101908080359060200190929190505050610212565b6040518082815260200191505060405180910390f35b610164610287565b6000600a806020026040519081016040528092919082600a80156101d3576020028201915b8160009054906101000a900473ffffffffffffffffffffffffffffffffffffffff1673ffffffffffffffffffffffffffffffffffffffff1681526020019060010190808311610189575b5050505050905090565b600081600a811015156101ec57fe5b016000915054906101000a900473ffffffffffffffffffffffffffffffffffffffff1681565b6000808210158015610225575060098211155b151561023057600080fd5b33600083600a8110151561024057fe5b0160006101000a81548173ffffffffffffffffffffffffffffffffffffffff021916908373ffffffffffffffffffffffffffffffffffffffff160217905550819050919050565b61014060405190810160405280600a906020820280388339808201915050905050905600a165627a7a72305820b72df4154f4a0364fb7abc062cf1011723ed435eba3009dc30594002585b79490029",
  "source": "pragma solidity ^0.4.0;\r\n\r\ncontract Library {\r\n\taddress[10] public users; //用来记每一本书的地址\r\n\r\n\tfunction user(uint id) public returns (uint) {\r\n\t\trequire(id>=0 && id<=9);\r\n\t\tusers[id]=msg.sender;\r\n\t\treturn id;\r\n\t}\r\n\r\n\tfunction getUsers() public view returns (address[10]) {\r\n\t\treturn users;\r\n\t}\r\n\t\r\n}",
  "sourcePath": "D:\\blockchain\\shareLibrary\\contracts\\Library.sol",
  "compiler": {
    "name": "solc",
    "version": "0.4.24+commit.e67f0147.Emscripten.clang"
  },
  "schemaVersion": "2.0.1",
  "updatedAt": "2018-12-25T09:40:44.993Z"
}